{
  "contractName": "Faucet",
  "abi": [
    {
      "constant": true,
      "inputs": [
        {
          "name": "",
          "type": "uint256"
        }
      ],
      "name": "funders",
      "outputs": [
        {
          "name": "",
          "type": "address"
        }
      ],
      "payable": false,
      "stateMutability": "view",
      "type": "function"
    },
    {
      "constant": false,
      "inputs": [],
      "name": "addFunds",
      "outputs": [],
      "payable": true,
      "stateMutability": "payable",
      "type": "function"
    },
    {
      "constant": true,
      "inputs": [],
      "name": "getFunders",
      "outputs": [
        {
          "name": "",
          "type": "address[]"
        }
      ],
      "payable": false,
      "stateMutability": "view",
      "type": "function"
    },
    {
      "constant": true,
      "inputs": [
        {
          "name": "index",
          "type": "uint256"
        }
      ],
      "name": "getFundersAtIndex",
      "outputs": [
        {
          "name": "",
          "type": "address"
        }
      ],
      "payable": false,
      "stateMutability": "view",
      "type": "function"
    }
  ],
  "bytecode": "0x608060405234801561001057600080fd5b5061035b806100206000396000f3fe60806040526004361061005c576000357c010000000000000000000000000000000000000000000000000000000090048063a26759cb14610061578063ca64abcd1461006b578063dc0d3dff146100e6578063ea63a04414610161575b600080fd5b6100696101cd565b005b34801561007757600080fd5b506100a46004803603602081101561008e57600080fd5b8101908080359060200190929190505050610235565b604051808273ffffffffffffffffffffffffffffffffffffffff1673ffffffffffffffffffffffffffffffffffffffff16815260200191505060405180910390f35b3480156100f257600080fd5b5061011f6004803603602081101561010957600080fd5b8101908080359060200190929190505050610263565b604051808273ffffffffffffffffffffffffffffffffffffffff1673ffffffffffffffffffffffffffffffffffffffff16815260200191505060405180910390f35b34801561016d57600080fd5b506101766102a1565b6040518080602001828103825283818151815260200191508051906020019060200280838360005b838110156101b957808201518184015260208101905061019e565b505050509050019250505060405180910390f35b60003390806001815401808255809150509060018203906000526020600020016000909192909190916101000a81548173ffffffffffffffffffffffffffffffffffffffff021916908373ffffffffffffffffffffffffffffffffffffffff16021790555050565b600060606102416102a1565b9050808381518110151561025157fe5b90602001906020020151915050919050565b60008181548110151561027257fe5b906000526020600020016000915054906101000a900473ffffffffffffffffffffffffffffffffffffffff1681565b6060600080548060200260200160405190810160405280929190818152602001828054801561032557602002820191906000526020600020905b8160009054906101000a900473ffffffffffffffffffffffffffffffffffffffff1673ffffffffffffffffffffffffffffffffffffffff16815260200190600101908083116102db575b505050505090509056fea165627a7a723058201ec33fab07d9458fef11b18a3000cff10f1125c4b897f27a9e227c6ae27ba02f0029",
  "source": "// SPDX-License-Identifier: MIT\r\npragma solidity >=0.4.22 <0.9.0;\r\n\r\ncontract Faucet{\r\n\r\n address[] public funders; \r\n function addFunds() external payable {\r\n      funders.push(msg.sender);\r\n  }\r\n function getFunders() public view returns(address[] memory){\r\n      return funders;\r\n  }\r\n \r\n function getFundersAtIndex(uint index) external view returns(address){\r\n    address[] memory _funders = getFunders();\r\n    return _funders[index];\r\n }\r\n}\r\n\r\n// add Funds to smart-contract from account 0 ,1,2,3\r\n// show list of address of wallet of people who has funded us using  getFunders()\r\n\r\n\r\n// public function = function be called inside of the smart-contract also\r\n// external function = function cannot be called inside of the smart-contract and can only be called from outside using truffle instance of smart-contract (const instance = await Faucet.deployed()) \r\n// u can use this.theExternalFunction() if there is an emence need to call a external function from withing the smart contract but this will increase the gas fee\r\n// address[] = is a array type that store address of eth wallets\r\n//           defined public \r\n//           \"funders\" is the array name\r\n\r\n// getFunders() function\r\n//        external = can be called in truffle console using smart-contract instance\r\n//        view = indicate that we can viewdata\r\n//        returns an array that will have address of wallet from \"memory\" of eth-network where smart-contract is placed\r\n\r\n\r\n// funders.push(msg.sender); = each time addFunds function gets called , address of sender is pushed(appended) into \"funder array\";\r\n\r\n// truffle migrate --reset\r\n// truffle console\r\n// const instance = await Faucet.deployed()\r\n\r\n// instance.addFunds({ value: \"292929292\" , from: accounts[0] })\r\n// instance.addFunds({ value: \"292929292\" , from: accounts[1] })\r\n// instance.addFunds({ value: \"292929292\" , from: accounts[2] })\r\n// instance.addFunds({ value: \"292929292\" , from: accounts[3] })\r\n// instance.addFunds({ value: \"292929292\" , from: accounts[4] })\r\n// instance.addFunds({ value: \"292929292\" , from: accounts[5] })\r\n\r\n// instance.getFunders();\r\n\r\n// here wai worth \"292929292\" is sent from account 0,1,2,3,4 in GANACHE(test net) to smart-contract, \r\n\r\n// where we are saving address of sender each time we recieve a fund\r\n\r\n// add Funds to smart-contract from account 0 ,1,2,3\r\n// show list of address of wallet of people who has funded us using  getFunders()\r\n",
  "sourcePath": "C:\\Users\\WebDev\\Documents\\WebDev\\Learn\\Solidity_Ethereum\\basic-understanding\\contracts\\FaucetContract.sol",
  "compiler": {
    "name": "solc",
    "version": "0.5.1+commit.c8a2cb62.Emscripten.clang"
  },
  "schemaVersion": "3.4.4",
  "updatedAt": "2021-12-29T10:13:33.971Z",
  "networkType": "ethereum",
  "devdoc": {
    "methods": {}
  },
  "userdoc": {
    "methods": {}
  }
}