{
  "contractName": "FaucetNew",
  "abi": [
    {
      "constant": false,
      "inputs": [],
      "name": "addFunds",
      "outputs": [],
      "payable": false,
      "stateMutability": "nonpayable",
      "type": "function"
    }
  ],
  "bytecode": "0x6080604052348015600f57600080fd5b5060808061001e6000396000f3fe6080604052600436106039576000357c010000000000000000000000000000000000000000000000000000000090048063a26759cb14603e575b600080fd5b348015604957600080fd5b5060506052565b005b56fea165627a7a7230582029a8f5582b3164d830776def9391dc049853008643867670797cda5cd31468640029",
  "source": "// SPDX-License-Identifier: MIT\r\npragma solidity >=0.4.22 <0.9.0;\r\n\r\ncontract FaucetNew{\r\n\r\n function addFunds() external {\r\n\r\n }\r\n}",
  "sourcePath": "C:\\Users\\WebDev\\Documents\\WebDev\\Learn\\Solidity_Ethereum\\basic-understanding\\contracts\\FaucetNewContract.sol",
  "compiler": {
    "name": "solc",
    "version": "0.5.1+commit.c8a2cb62.Emscripten.clang"
  },
  "schemaVersion": "3.4.4",
  "updatedAt": "2021-12-26T10:40:18.830Z",
  "devdoc": {
    "methods": {}
  },
  "userdoc": {
    "methods": {}
  }
}