{
  "contractName": "Faucet",
  "abi": [
    {
      "constant": true,
      "inputs": [],
      "name": "numOfFunders",
      "outputs": [
        {
          "name": "",
          "type": "uint256"
        }
      ],
      "payable": false,
      "stateMutability": "view",
      "type": "function"
    },
    {
      "constant": false,
      "inputs": [],
      "name": "addFunds",
      "outputs": [],
      "payable": true,
      "stateMutability": "payable",
      "type": "function"
    },
    {
      "constant": true,
      "inputs": [
        {
          "name": "index",
          "type": "uint256"
        }
      ],
      "name": "getFundersAtIndex",
      "outputs": [
        {
          "name": "",
          "type": "address"
        }
      ],
      "payable": false,
      "stateMutability": "view",
      "type": "function"
    },
    {
      "constant": true,
      "inputs": [],
      "name": "getAllFunders",
      "outputs": [
        {
          "name": "",
          "type": "address[]"
        }
      ],
      "payable": false,
      "stateMutability": "view",
      "type": "function"
    }
  ],
  "bytecode": "0x608060405234801561001057600080fd5b506103e0806100206000396000f3fe60806040526004361061005c576000357c0100000000000000000000000000000000000000000000000000000000900480636fbbb55d14610061578063a26759cb146100cd578063af7f2c9b146100d7578063ca64abcd14610102575b600080fd5b34801561006d57600080fd5b5061007661017d565b6040518080602001828103825283818151815260200191508051906020019060200280838360005b838110156100b957808201518184015260208101905061009e565b505050509050019250505060405180910390f35b6100d5610257565b005b3480156100e357600080fd5b506100ec610371565b6040518082815260200191505060405180910390f35b34801561010e57600080fd5b5061013b6004803603602081101561012557600080fd5b8101908080359060200190929190505050610377565b604051808273ffffffffffffffffffffffffffffffffffffffff1673ffffffffffffffffffffffffffffffffffffffff16815260200191505060405180910390f35b6060806000546040519080825280602002602001820160405280156101b15781602001602082028038833980820191505090505b50905060008090505b60005481101561024f576002600082815260200190815260200160002060009054906101000a900473ffffffffffffffffffffffffffffffffffffffff16828281518110151561020657fe5b9060200190602002019073ffffffffffffffffffffffffffffffffffffffff16908173ffffffffffffffffffffffffffffffffffffffff168152505080806001019150506101ba565b508091505090565b6000339050600160008273ffffffffffffffffffffffffffffffffffffffff1673ffffffffffffffffffffffffffffffffffffffff16815260200190815260200160002060009054906101000a900460ff16151561036e57600080600081548092919060010191905055905060018060008473ffffffffffffffffffffffffffffffffffffffff1673ffffffffffffffffffffffffffffffffffffffff16815260200190815260200160002060006101000a81548160ff021916908315150217905550816002600083815260200190815260200160002060006101000a81548173ffffffffffffffffffffffffffffffffffffffff021916908373ffffffffffffffffffffffffffffffffffffffff160217905550505b50565b60005481565b60006002600083815260200190815260200160002060009054906101000a900473ffffffffffffffffffffffffffffffffffffffff16905091905056fea165627a7a72305820e396613ba2224c811ee4614e437217a04dcbd20e08713dc78300787b01b1f1120029",
  "source": "// SPDX-License-Identifier: MIT\r\npragma solidity >=0.4.22 <0.9.0;\r\n\r\ncontract Faucet{\r\n uint public numOfFunders;    // default = 0\r\n mapping(address=>bool) private funders; \r\n mapping(uint => address) private lutFunders; // look up table\r\n function addFunds() external payable {\r\n   \r\n      address funder = msg.sender;\r\n      if( !funders[funder] ){\r\n                uint index = numOfFunders++;\r\n                funders[funder] = true;\r\n                lutFunders[index] = funder;\r\n      }\r\n  }\r\n function getFundersAtIndex(uint index) external view returns(address){\r\n    return lutFunders[index];\r\n }\r\n \r\n function getAllFunders() external view returns(address[] memory){\r\n           address[] memory _funders = new address[](numOfFunders);\r\n           for(uint i=0 ; i < numOfFunders ; i++){\r\n                     _funders[i] = lutFunders[i];\r\n           }\r\n           return _funders;\r\n }\r\n\r\n}\r\n\r\n\r\n// preventing duplication of adding address in list of funders\r\n\r\n// truffle migrate --reset\r\n// truffle console\r\n// const instance = await Faucet.deployed()\r\n// instance.addFunds({value: \"202020202\" , from: accounts[0]})\r\n// instance.addFunds({value: \"202020202\" , from: accounts[1]})\r\n// instance.getFundersAtIndex(0)\r\n                    // > '0xA507185e878E238d9315a3DfDa4eC6d9CB739345'\r\n// instance.getFundersAtIndex(1)\r\n                    // > '0xA507185e878E238d9315a3DfDa4eC6d9CB739345'\r\n\r\n\r\n// look under GANACHE Faucet contract \r\n          // numOfFunders = 2\r\n\r\n// instance.getAllFunders()\r\n// [\r\n//   '0xA507185e878E238d9315a3DfDa4eC6d9CB739345',\r\n//   '0xe4B63CF1c3DC35B097113993d658288FDd43FF30'\r\n// ]\r\n\r\n// ",
  "sourcePath": "C:\\Users\\WebDev\\Documents\\WebDev\\Learn\\Solidity_Ethereum\\basic-understanding\\contracts\\FaucetContract.sol",
  "compiler": {
    "name": "solc",
    "version": "0.5.1+commit.c8a2cb62.Emscripten.clang"
  },
  "schemaVersion": "3.4.4",
  "updatedAt": "2021-12-29T15:51:34.497Z",
  "networkType": "ethereum",
  "devdoc": {
    "methods": {}
  },
  "userdoc": {
    "methods": {}
  }
}