{
  "contractName": "Faucet",
  "abi": [
    {
      "constant": false,
      "inputs": [],
      "name": "addFunds",
      "outputs": [],
      "payable": true,
      "stateMutability": "payable",
      "type": "function"
    }
  ],
  "bytecode": "0x6080604052348015600f57600080fd5b5060748061001e6000396000f3fe6080604052600436106039576000357c010000000000000000000000000000000000000000000000000000000090048063a26759cb14603e575b600080fd5b60446046565b005b56fea165627a7a72305820c573cef1b65f02872c994b03aa92a51545283f5fe5cd9b50626be122970a51fa0029",
  "source": "// SPDX-License-Identifier: MIT\r\npragma solidity >=0.4.22 <0.9.0;\r\n\r\ncontract Faucet{\r\n \r\n function addFunds() external payable {\r\n\r\n }\r\n}",
  "sourcePath": "C:\\Users\\WebDev\\Documents\\WebDev\\Learn\\Solidity_Ethereum\\basic-understanding\\contracts\\FaucetContract.sol",
  "compiler": {
    "name": "solc",
    "version": "0.5.1+commit.c8a2cb62.Emscripten.clang"
  },
  "schemaVersion": "3.4.4",
  "updatedAt": "2021-12-26T10:46:08.842Z",
  "networkType": "ethereum",
  "devdoc": {
    "methods": {}
  },
  "userdoc": {
    "methods": {}
  }
}